{
  "abi": [
    {
      "type": "constructor",
      "inputs": [
        {
          "name": "initialOwner",
          "type": "address",
          "internalType": "address"
        }
      ],
      "stateMutability": "nonpayable"
    },
    {
      "type": "function",
      "name": "approve",
      "inputs": [
        {
          "name": "to",
          "type": "address",
          "internalType": "address"
        },
        {
          "name": "tokenId",
          "type": "uint256",
          "internalType": "uint256"
        }
      ],
      "outputs": [],
      "stateMutability": "nonpayable"
    },
    {
      "type": "function",
      "name": "balanceOf",
      "inputs": [
        {
          "name": "owner",
          "type": "address",
          "internalType": "address"
        }
      ],
      "outputs": [
        {
          "name": "",
          "type": "uint256",
          "internalType": "uint256"
        }
      ],
      "stateMutability": "view"
    },
    {
      "type": "function",
      "name": "burn",
      "inputs": [
        {
          "name": "tokenId",
          "type": "uint256",
          "internalType": "uint256"
        }
      ],
      "outputs": [],
      "stateMutability": "nonpayable"
    },
    {
      "type": "function",
      "name": "counter",
      "inputs": [],
      "outputs": [
        {
          "name": "",
          "type": "uint256",
          "internalType": "uint256"
        }
      ],
      "stateMutability": "view"
    },
    {
      "type": "function",
      "name": "getApproved",
      "inputs": [
        {
          "name": "tokenId",
          "type": "uint256",
          "internalType": "uint256"
        }
      ],
      "outputs": [
        {
          "name": "",
          "type": "address",
          "internalType": "address"
        }
      ],
      "stateMutability": "view"
    },
    {
      "type": "function",
      "name": "isApprovedForAll",
      "inputs": [
        {
          "name": "owner",
          "type": "address",
          "internalType": "address"
        },
        {
          "name": "operator",
          "type": "address",
          "internalType": "address"
        }
      ],
      "outputs": [
        {
          "name": "",
          "type": "bool",
          "internalType": "bool"
        }
      ],
      "stateMutability": "view"
    },
    {
      "type": "function",
      "name": "maxSupply",
      "inputs": [],
      "outputs": [
        {
          "name": "",
          "type": "uint256",
          "internalType": "uint256"
        }
      ],
      "stateMutability": "view"
    },
    {
      "type": "function",
      "name": "mintFor",
      "inputs": [
        {
          "name": "_recipient",
          "type": "address",
          "internalType": "address"
        }
      ],
      "outputs": [],
      "stateMutability": "nonpayable"
    },
    {
      "type": "function",
      "name": "minted",
      "inputs": [
        {
          "name": "",
          "type": "address",
          "internalType": "address"
        }
      ],
      "outputs": [
        {
          "name": "",
          "type": "bool",
          "internalType": "bool"
        }
      ],
      "stateMutability": "view"
    },
    {
      "type": "function",
      "name": "name",
      "inputs": [],
      "outputs": [
        {
          "name": "",
          "type": "string",
          "internalType": "string"
        }
      ],
      "stateMutability": "view"
    },
    {
      "type": "function",
      "name": "nftURI",
      "inputs": [],
      "outputs": [
        {
          "name": "",
          "type": "string",
          "internalType": "string"
        }
      ],
      "stateMutability": "view"
    },
    {
      "type": "function",
      "name": "owner",
      "inputs": [],
      "outputs": [
        {
          "name": "",
          "type": "address",
          "internalType": "address"
        }
      ],
      "stateMutability": "view"
    },
    {
      "type": "function",
      "name": "ownerOf",
      "inputs": [
        {
          "name": "tokenId",
          "type": "uint256",
          "internalType": "uint256"
        }
      ],
      "outputs": [
        {
          "name": "",
          "type": "address",
          "internalType": "address"
        }
      ],
      "stateMutability": "view"
    },
    {
      "type": "function",
      "name": "renounceOwnership",
      "inputs": [],
      "outputs": [],
      "stateMutability": "nonpayable"
    },
    {
      "type": "function",
      "name": "safeMint",
      "inputs": [
        {
          "name": "to",
          "type": "address",
          "internalType": "address"
        },
        {
          "name": "tokenId",
          "type": "uint256",
          "internalType": "uint256"
        },
        {
          "name": "uri",
          "type": "string",
          "internalType": "string"
        }
      ],
      "outputs": [],
      "stateMutability": "nonpayable"
    },
    {
      "type": "function",
      "name": "safeTransferFrom",
      "inputs": [
        {
          "name": "from",
          "type": "address",
          "internalType": "address"
        },
        {
          "name": "to",
          "type": "address",
          "internalType": "address"
        },
        {
          "name": "tokenId",
          "type": "uint256",
          "internalType": "uint256"
        }
      ],
      "outputs": [],
      "stateMutability": "nonpayable"
    },
    {
      "type": "function",
      "name": "safeTransferFrom",
      "inputs": [
        {
          "name": "from",
          "type": "address",
          "internalType": "address"
        },
        {
          "name": "to",
          "type": "address",
          "internalType": "address"
        },
        {
          "name": "tokenId",
          "type": "uint256",
          "internalType": "uint256"
        },
        {
          "name": "data",
          "type": "bytes",
          "internalType": "bytes"
        }
      ],
      "outputs": [],
      "stateMutability": "nonpayable"
    },
    {
      "type": "function",
      "name": "setApprovalForAll",
      "inputs": [
        {
          "name": "operator",
          "type": "address",
          "internalType": "address"
        },
        {
          "name": "approved",
          "type": "bool",
          "internalType": "bool"
        }
      ],
      "outputs": [],
      "stateMutability": "nonpayable"
    },
    {
      "type": "function",
      "name": "supportsInterface",
      "inputs": [
        {
          "name": "interfaceId",
          "type": "bytes4",
          "internalType": "bytes4"
        }
      ],
      "outputs": [
        {
          "name": "",
          "type": "bool",
          "internalType": "bool"
        }
      ],
      "stateMutability": "view"
    },
    {
      "type": "function",
      "name": "symbol",
      "inputs": [],
      "outputs": [
        {
          "name": "",
          "type": "string",
          "internalType": "string"
        }
      ],
      "stateMutability": "view"
    },
    {
      "type": "function",
      "name": "tokenURI",
      "inputs": [
        {
          "name": "tokenId",
          "type": "uint256",
          "internalType": "uint256"
        }
      ],
      "outputs": [
        {
          "name": "",
          "type": "string",
          "internalType": "string"
        }
      ],
      "stateMutability": "view"
    },
    {
      "type": "function",
      "name": "transferFrom",
      "inputs": [
        {
          "name": "from",
          "type": "address",
          "internalType": "address"
        },
        {
          "name": "to",
          "type": "address",
          "internalType": "address"
        },
        {
          "name": "tokenId",
          "type": "uint256",
          "internalType": "uint256"
        }
      ],
      "outputs": [],
      "stateMutability": "nonpayable"
    },
    {
      "type": "function",
      "name": "transferOwnership",
      "inputs": [
        {
          "name": "newOwner",
          "type": "address",
          "internalType": "address"
        }
      ],
      "outputs": [],
      "stateMutability": "nonpayable"
    },
    {
      "type": "event",
      "name": "Approval",
      "inputs": [
        {
          "name": "owner",
          "type": "address",
          "indexed": true,
          "internalType": "address"
        },
        {
          "name": "approved",
          "type": "address",
          "indexed": true,
          "internalType": "address"
        },
        {
          "name": "tokenId",
          "type": "uint256",
          "indexed": true,
          "internalType": "uint256"
        }
      ],
      "anonymous": false
    },
    {
      "type": "event",
      "name": "ApprovalForAll",
      "inputs": [
        {
          "name": "owner",
          "type": "address",
          "indexed": true,
          "internalType": "address"
        },
        {
          "name": "operator",
          "type": "address",
          "indexed": true,
          "internalType": "address"
        },
        {
          "name": "approved",
          "type": "bool",
          "indexed": false,
          "internalType": "bool"
        }
      ],
      "anonymous": false
    },
    {
      "type": "event",
      "name": "BatchMetadataUpdate",
      "inputs": [
        {
          "name": "_fromTokenId",
          "type": "uint256",
          "indexed": false,
          "internalType": "uint256"
        },
        {
          "name": "_toTokenId",
          "type": "uint256",
          "indexed": false,
          "internalType": "uint256"
        }
      ],
      "anonymous": false
    },
    {
      "type": "event",
      "name": "MetadataUpdate",
      "inputs": [
        {
          "name": "_tokenId",
          "type": "uint256",
          "indexed": false,
          "internalType": "uint256"
        }
      ],
      "anonymous": false
    },
    {
      "type": "event",
      "name": "OwnershipTransferred",
      "inputs": [
        {
          "name": "previousOwner",
          "type": "address",
          "indexed": true,
          "internalType": "address"
        },
        {
          "name": "newOwner",
          "type": "address",
          "indexed": true,
          "internalType": "address"
        }
      ],
      "anonymous": false
    },
    {
      "type": "event",
      "name": "Transfer",
      "inputs": [
        {
          "name": "from",
          "type": "address",
          "indexed": true,
          "internalType": "address"
        },
        {
          "name": "to",
          "type": "address",
          "indexed": true,
          "internalType": "address"
        },
        {
          "name": "tokenId",
          "type": "uint256",
          "indexed": true,
          "internalType": "uint256"
        }
      ],
      "anonymous": false
    },
    {
      "type": "error",
      "name": "ERC721IncorrectOwner",
      "inputs": [
        {
          "name": "sender",
          "type": "address",
          "internalType": "address"
        },
        {
          "name": "tokenId",
          "type": "uint256",
          "internalType": "uint256"
        },
        {
          "name": "owner",
          "type": "address",
          "internalType": "address"
        }
      ]
    },
    {
      "type": "error",
      "name": "ERC721InsufficientApproval",
      "inputs": [
        {
          "name": "operator",
          "type": "address",
          "internalType": "address"
        },
        {
          "name": "tokenId",
          "type": "uint256",
          "internalType": "uint256"
        }
      ]
    },
    {
      "type": "error",
      "name": "ERC721InvalidApprover",
      "inputs": [
        {
          "name": "approver",
          "type": "address",
          "internalType": "address"
        }
      ]
    },
    {
      "type": "error",
      "name": "ERC721InvalidOperator",
      "inputs": [
        {
          "name": "operator",
          "type": "address",
          "internalType": "address"
        }
      ]
    },
    {
      "type": "error",
      "name": "ERC721InvalidOwner",
      "inputs": [
        {
          "name": "owner",
          "type": "address",
          "internalType": "address"
        }
      ]
    },
    {
      "type": "error",
      "name": "ERC721InvalidReceiver",
      "inputs": [
        {
          "name": "receiver",
          "type": "address",
          "internalType": "address"
        }
      ]
    },
    {
      "type": "error",
      "name": "ERC721InvalidSender",
      "inputs": [
        {
          "name": "sender",
          "type": "address",
          "internalType": "address"
        }
      ]
    },
    {
      "type": "error",
      "name": "ERC721NonexistentToken",
      "inputs": [
        {
          "name": "tokenId",
          "type": "uint256",
          "internalType": "uint256"
        }
      ]
    },
    {
      "type": "error",
      "name": "OwnableInvalidOwner",
      "inputs": [
        {
          "name": "owner",
          "type": "address",
          "internalType": "address"
        }
      ]
    },
    {
      "type": "error",
      "name": "OwnableUnauthorizedAccount",
      "inputs": [
        {
          "name": "account",
          "type": "address",
          "internalType": "address"
        }
      ]
    }
  ],
  "bytecode": {
    "object": "0x6080604052614e206009553480156200001757600080fd5b5060405162001947380380620019478339810160408190526200003a9162000122565b604080518082018252600980825268165d59d853d1d3919560ba1b6020808401829052845180860190955291845290830152829160006200007c8382620001fb565b5060016200008b8282620001fb565b5050506001600160a01b038116620000bd57604051631e4fbdf760e01b81526000600482015260240160405180910390fd5b620000c881620000d0565b5050620002c7565b600780546001600160a01b038381166001600160a01b0319831681179093556040519116919082907f8be0079c531659141344cd1fd0a4f28419497f9722a3daafe3b4186f6b6457e090600090a35050565b6000602082840312156200013557600080fd5b81516001600160a01b03811681146200014d57600080fd5b9392505050565b634e487b7160e01b600052604160045260246000fd5b600181811c908216806200017f57607f821691505b602082108103620001a057634e487b7160e01b600052602260045260246000fd5b50919050565b601f821115620001f6576000816000526020600020601f850160051c81016020861015620001d15750805b601f850160051c820191505b81811015620001f257828155600101620001dd565b5050505b505050565b81516001600160401b0381111562000217576200021762000154565b6200022f816200022884546200016a565b84620001a6565b602080601f8311600181146200026757600084156200024e5750858301515b600019600386901b1c1916600185901b178555620001f2565b600085815260208120601f198616915b82811015620002985788860151825594840194600190910190840162000277565b5085821015620002b75787850151600019600388901b60f8161c191681555b5050505050600190811b01905550565b61167080620002d76000396000f3fe608060405234801561001057600080fd5b506004361061014d5760003560e01c806370a08231116100c3578063b88d4fde1161007c578063b88d4fde146102b7578063c87b56dd146102ca578063cd279c7c146102dd578063d5abeb01146102f0578063e985e9c5146102f9578063f2fde38b1461030c57600080fd5b806370a082311461025d578063715018a61461027057806371e578dc146102785780638da5cb5b1461028b57806395d89b411461029c578063a22cb465146102a457600080fd5b806323b872dd1161011557806323b872dd146101f257806342842e0e1461020557806342966c68146102185780634fa153b31461022b57806361bc221a146102335780636352211e1461024a57600080fd5b806301ffc9a71461015257806306fdde031461017a578063081812fc1461018f578063095ea7b3146101ba5780631e7269c5146101cf575b600080fd5b6101656101603660046110bf565b61031f565b60405190151581526020015b60405180910390f35b610182610330565b604051610171919061112c565b6101a261019d36600461113f565b6103c2565b6040516001600160a01b039091168152602001610171565b6101cd6101c8366004611174565b6103eb565b005b6101656101dd36600461119e565b600a6020526000908152604090205460ff1681565b6101cd6102003660046111b9565b6103fa565b6101cd6102133660046111b9565b61048a565b6101cd61022636600461113f565b6104aa565b6101826104b6565b61023c60085481565b604051908152602001610171565b6101a261025836600461113f565b6104d2565b61023c61026b36600461119e565b6104dd565b6101cd610525565b6101cd61028636600461119e565b610539565b6007546001600160a01b03166101a2565b610182610649565b6101cd6102b23660046111f5565b610658565b6101cd6102c53660046112bd565b610663565b6101826102d836600461113f565b61067a565b6101cd6102eb366004611339565b610685565b61023c60095481565b6101656103073660046113a4565b6106a1565b6101cd61031a36600461119e565b6106cf565b600061032a8261070a565b92915050565b60606000805461033f906113d7565b80601f016020809104026020016040519081016040528092919081815260200182805461036b906113d7565b80156103b85780601f1061038d576101008083540402835291602001916103b8565b820191906000526020600020905b81548152906001019060200180831161039b57829003601f168201915b5050505050905090565b60006103cd8261072f565b506000828152600460205260409020546001600160a01b031661032a565b6103f6828233610768565b5050565b6001600160a01b03821661042957604051633250574960e11b8152600060048201526024015b60405180910390fd5b6000610436838333610775565b9050836001600160a01b0316816001600160a01b031614610484576040516364283d7b60e01b81526001600160a01b0380861660048301526024820184905282166044820152606401610420565b50505050565b6104a583838360405180602001604052806000815250610663565b505050565b6103f660008233610775565b6040518060a00160405280606981526020016115d26069913981565b600061032a8261072f565b60006001600160a01b038216610509576040516322718ad960e21b815260006004820152602401610420565b506001600160a01b031660009081526003602052604090205490565b61052d61086e565b610537600061089b565b565b61054161086e565b6009546008541061058a5760405162461bcd60e51b81526020600482015260136024820152724d617820537570706c7920526561636865642160681b6044820152606401610420565b6001600160a01b0381166000908152600a602052604090205460ff16156105eb5760405162461bcd60e51b81526020600482015260156024820152744f6e65204d696e742050657220416464726573732160581b6044820152606401610420565b6001600160a01b0381166000908152600a60205260408120805460ff19166001179055600880549161061c83611411565b9190505550610646816008546040518060a00160405280606981526020016115d260699139610685565b50565b60606001805461033f906113d7565b6103f63383836108ed565b61066e8484846103fa565b6104848484848461098c565b606061032a82610ab5565b61068d61086e565b6106978383610bc6565b6104a58282610be0565b6001600160a01b03918216600090815260056020908152604080832093909416825291909152205460ff1690565b6106d761086e565b6001600160a01b03811661070157604051631e4fbdf760e01b815260006004820152602401610420565b6106468161089b565b60006001600160e01b03198216632483248360e11b148061032a575061032a82610c30565b6000818152600260205260408120546001600160a01b03168061032a57604051637e27328960e01b815260048101849052602401610420565b6104a58383836001610c80565b6000828152600260205260408120546001600160a01b03908116908316156107a2576107a2818486610d86565b6001600160a01b038116156107e0576107bf600085600080610c80565b6001600160a01b038116600090815260036020526040902080546000190190555b6001600160a01b0385161561080f576001600160a01b0385166000908152600360205260409020805460010190555b60008481526002602052604080822080546001600160a01b0319166001600160a01b0389811691821790925591518793918516917fddf252ad1be2c89b69c2b068fc378daa952ba7f163c4a11628f55a4df523b3ef91a4949350505050565b6007546001600160a01b031633146105375760405163118cdaa760e01b8152336004820152602401610420565b600780546001600160a01b038381166001600160a01b0319831681179093556040519116919082907f8be0079c531659141344cd1fd0a4f28419497f9722a3daafe3b4186f6b6457e090600090a35050565b6001600160a01b03821661091f57604051630b61174360e31b81526001600160a01b0383166004820152602401610420565b6001600160a01b03838116600081815260056020908152604080832094871680845294825291829020805460ff191686151590811790915591519182527f17307eab39ab6107e8899845ad3d59bd9653f200f220920489ca2b5937696c31910160405180910390a3505050565b6001600160a01b0383163b1561048457604051630a85bd0160e11b81526001600160a01b0384169063150b7a02906109ce903390889087908790600401611438565b6020604051808303816000875af1925050508015610a09575060408051601f3d908101601f19168201909252610a0691810190611475565b60015b610a72573d808015610a37576040519150601f19603f3d011682016040523d82523d6000602084013e610a3c565b606091505b508051600003610a6a57604051633250574960e11b81526001600160a01b0385166004820152602401610420565b805181602001fd5b6001600160e01b03198116630a85bd0160e11b14610aae57604051633250574960e11b81526001600160a01b0385166004820152602401610420565b5050505050565b6060610ac08261072f565b5060008281526006602052604081208054610ada906113d7565b80601f0160208091040260200160405190810160405280929190818152602001828054610b06906113d7565b8015610b535780601f10610b2857610100808354040283529160200191610b53565b820191906000526020600020905b815481529060010190602001808311610b3657829003601f168201915b505050505090506000610b7160408051602081019091526000815290565b90508051600003610b83575092915050565b815115610bb5578082604051602001610b9d929190611492565b60405160208183030381529060405292505050919050565b610bbe84610dea565b949350505050565b6103f6828260405180602001604052806000815250610e5f565b6000828152600660205260409020610bf88282611511565b506040518281527ff8e1a15aba9398e019f0b49df1a4fde98ee17ae345cb5f6b5e2c27f5033e8ce79060200160405180910390a15050565b60006001600160e01b031982166380ac58cd60e01b1480610c6157506001600160e01b03198216635b5e139f60e01b145b8061032a57506301ffc9a760e01b6001600160e01b031983161461032a565b8080610c9457506001600160a01b03821615155b15610d56576000610ca48461072f565b90506001600160a01b03831615801590610cd05750826001600160a01b0316816001600160a01b031614155b8015610ce35750610ce181846106a1565b155b15610d0c5760405163a9fbf51f60e01b81526001600160a01b0384166004820152602401610420565b8115610d545783856001600160a01b0316826001600160a01b03167f8c5be1e5ebec7d5bd14f71427d1e84f3dd0314c0f7b2291e5b200ac8c7c3b92560405160405180910390a45b505b5050600090815260046020526040902080546001600160a01b0319166001600160a01b0392909216919091179055565b610d91838383610e76565b6104a5576001600160a01b038316610dbf57604051637e27328960e01b815260048101829052602401610420565b60405163177e802f60e01b81526001600160a01b038316600482015260248101829052604401610420565b6060610df58261072f565b506000610e0d60408051602081019091526000815290565b90506000815111610e2d5760405180602001604052806000815250610e58565b80610e3784610ed9565b604051602001610e48929190611492565b6040516020818303038152906040525b9392505050565b610e698383610f6c565b6104a5600084848461098c565b60006001600160a01b03831615801590610bbe5750826001600160a01b0316846001600160a01b03161480610eb05750610eb084846106a1565b80610bbe5750506000908152600460205260409020546001600160a01b03908116911614919050565b60606000610ee683610fd1565b600101905060008167ffffffffffffffff811115610f0657610f06611231565b6040519080825280601f01601f191660200182016040528015610f30576020820181803683370190505b5090508181016020015b600019016f181899199a1a9b1b9c1cb0b131b232b360811b600a86061a8153600a8504945084610f3a57509392505050565b6001600160a01b038216610f9657604051633250574960e11b815260006004820152602401610420565b6000610fa483836000610775565b90506001600160a01b038116156104a5576040516339e3563760e11b815260006004820152602401610420565b60008072184f03e93ff9f4daa797ed6e38ed64bf6a1f0160401b83106110105772184f03e93ff9f4daa797ed6e38ed64bf6a1f0160401b830492506040015b6d04ee2d6d415b85acef8100000000831061103c576d04ee2d6d415b85acef8100000000830492506020015b662386f26fc10000831061105a57662386f26fc10000830492506010015b6305f5e1008310611072576305f5e100830492506008015b612710831061108657612710830492506004015b60648310611098576064830492506002015b600a831061032a5760010192915050565b6001600160e01b03198116811461064657600080fd5b6000602082840312156110d157600080fd5b8135610e58816110a9565b60005b838110156110f75781810151838201526020016110df565b50506000910152565b600081518084526111188160208601602086016110dc565b601f01601f19169290920160200192915050565b602081526000610e586020830184611100565b60006020828403121561115157600080fd5b5035919050565b80356001600160a01b038116811461116f57600080fd5b919050565b6000806040838503121561118757600080fd5b61119083611158565b946020939093013593505050565b6000602082840312156111b057600080fd5b610e5882611158565b6000806000606084860312156111ce57600080fd5b6111d784611158565b92506111e560208501611158565b9150604084013590509250925092565b6000806040838503121561120857600080fd5b61121183611158565b91506020830135801515811461122657600080fd5b809150509250929050565b634e487b7160e01b600052604160045260246000fd5b600067ffffffffffffffff8084111561126257611262611231565b604051601f8501601f19908116603f0116810190828211818310171561128a5761128a611231565b816040528093508581528686860111156112a357600080fd5b858560208301376000602087830101525050509392505050565b600080600080608085870312156112d357600080fd5b6112dc85611158565b93506112ea60208601611158565b925060408501359150606085013567ffffffffffffffff81111561130d57600080fd5b8501601f8101871361131e57600080fd5b61132d87823560208401611247565b91505092959194509250565b60008060006060848603121561134e57600080fd5b61135784611158565b925060208401359150604084013567ffffffffffffffff81111561137a57600080fd5b8401601f8101861361138b57600080fd5b61139a86823560208401611247565b9150509250925092565b600080604083850312156113b757600080fd5b6113c083611158565b91506113ce60208401611158565b90509250929050565b600181811c908216806113eb57607f821691505b60208210810361140b57634e487b7160e01b600052602260045260246000fd5b50919050565b60006001820161143157634e487b7160e01b600052601160045260246000fd5b5060010190565b6001600160a01b038581168252841660208201526040810183905260806060820181905260009061146b90830184611100565b9695505050505050565b60006020828403121561148757600080fd5b8151610e58816110a9565b600083516114a48184602088016110dc565b8351908301906114b88183602088016110dc565b01949350505050565b601f8211156104a5576000816000526020600020601f850160051c810160208610156114ea5750805b601f850160051c820191505b81811015611509578281556001016114f6565b505050505050565b815167ffffffffffffffff81111561152b5761152b611231565b61153f8161153984546113d7565b846114c1565b602080601f831160018114611574576000841561155c5750858301515b600019600386901b1c1916600185901b178555611509565b600085815260208120601f198616915b828110156115a357888601518255948401946001909101908401611584565b50858210156115c15787850151600019600388901b60f8161c191681555b5050505050600190811b0190555056fe68747470733a2f2f6261666b7265696279706a747a667a6e763678733670666e36676e6c33363636676966756d716263696b7461666a7271637866346d3377707835752e697066732e7733732e6c696e6b2f3f66696c656e616d653d6d657461646174612e6a736f6ea264697066735822122040009dedfb07d592288a5944186339189f39eb8a3d646414adbef769f58a51e364736f6c63430008180033",
    "linkReferences": {}
  },
  "methodIdentifiers": {
    "approve(address,uint256)": "095ea7b3",
    "balanceOf(address)": "70a08231",
    "burn(uint256)": "42966c68",
    "counter()": "61bc221a",
    "getApproved(uint256)": "081812fc",
    "isApprovedForAll(address,address)": "e985e9c5",
    "maxSupply()": "d5abeb01",
    "mintFor(address)": "71e578dc",
    "minted(address)": "1e7269c5",
    "name()": "06fdde03",
    "nftURI()": "4fa153b3",
    "owner()": "8da5cb5b",
    "ownerOf(uint256)": "6352211e",
    "renounceOwnership()": "715018a6",
    "safeMint(address,uint256,string)": "cd279c7c",
    "safeTransferFrom(address,address,uint256)": "42842e0e",
    "safeTransferFrom(address,address,uint256,bytes)": "b88d4fde",
    "setApprovalForAll(address,bool)": "a22cb465",
    "supportsInterface(bytes4)": "01ffc9a7",
    "symbol()": "95d89b41",
    "tokenURI(uint256)": "c87b56dd",
    "transferFrom(address,address,uint256)": "23b872dd",
    "transferOwnership(address)": "f2fde38b"
  },
  "id": 34
}