{
  "abi": [
    {
      "type": "constructor",
      "inputs": [
        {
          "name": "initialOwner",
          "type": "address",
          "internalType": "address"
        }
      ],
      "stateMutability": "nonpayable"
    },
    {
      "type": "function",
      "name": "approve",
      "inputs": [
        {
          "name": "to",
          "type": "address",
          "internalType": "address"
        },
        {
          "name": "tokenId",
          "type": "uint256",
          "internalType": "uint256"
        }
      ],
      "outputs": [],
      "stateMutability": "nonpayable"
    },
    {
      "type": "function",
      "name": "balanceOf",
      "inputs": [
        {
          "name": "owner",
          "type": "address",
          "internalType": "address"
        }
      ],
      "outputs": [
        {
          "name": "",
          "type": "uint256",
          "internalType": "uint256"
        }
      ],
      "stateMutability": "view"
    },
    {
      "type": "function",
      "name": "burn",
      "inputs": [
        {
          "name": "tokenId",
          "type": "uint256",
          "internalType": "uint256"
        }
      ],
      "outputs": [],
      "stateMutability": "nonpayable"
    },
    {
      "type": "function",
      "name": "counter",
      "inputs": [],
      "outputs": [
        {
          "name": "",
          "type": "uint256",
          "internalType": "uint256"
        }
      ],
      "stateMutability": "view"
    },
    {
      "type": "function",
      "name": "getApproved",
      "inputs": [
        {
          "name": "tokenId",
          "type": "uint256",
          "internalType": "uint256"
        }
      ],
      "outputs": [
        {
          "name": "",
          "type": "address",
          "internalType": "address"
        }
      ],
      "stateMutability": "view"
    },
    {
      "type": "function",
      "name": "isApprovedForAll",
      "inputs": [
        {
          "name": "owner",
          "type": "address",
          "internalType": "address"
        },
        {
          "name": "operator",
          "type": "address",
          "internalType": "address"
        }
      ],
      "outputs": [
        {
          "name": "",
          "type": "bool",
          "internalType": "bool"
        }
      ],
      "stateMutability": "view"
    },
    {
      "type": "function",
      "name": "maxSupply",
      "inputs": [],
      "outputs": [
        {
          "name": "",
          "type": "uint256",
          "internalType": "uint256"
        }
      ],
      "stateMutability": "view"
    },
    {
      "type": "function",
      "name": "mintFor",
      "inputs": [
        {
          "name": "_recipient",
          "type": "address",
          "internalType": "address"
        }
      ],
      "outputs": [],
      "stateMutability": "nonpayable"
    },
    {
      "type": "function",
      "name": "minted",
      "inputs": [
        {
          "name": "",
          "type": "address",
          "internalType": "address"
        }
      ],
      "outputs": [
        {
          "name": "",
          "type": "uint256",
          "internalType": "uint256"
        }
      ],
      "stateMutability": "view"
    },
    {
      "type": "function",
      "name": "name",
      "inputs": [],
      "outputs": [
        {
          "name": "",
          "type": "string",
          "internalType": "string"
        }
      ],
      "stateMutability": "view"
    },
    {
      "type": "function",
      "name": "nftURI",
      "inputs": [],
      "outputs": [
        {
          "name": "",
          "type": "string",
          "internalType": "string"
        }
      ],
      "stateMutability": "view"
    },
    {
      "type": "function",
      "name": "owner",
      "inputs": [],
      "outputs": [
        {
          "name": "",
          "type": "address",
          "internalType": "address"
        }
      ],
      "stateMutability": "view"
    },
    {
      "type": "function",
      "name": "ownerOf",
      "inputs": [
        {
          "name": "tokenId",
          "type": "uint256",
          "internalType": "uint256"
        }
      ],
      "outputs": [
        {
          "name": "",
          "type": "address",
          "internalType": "address"
        }
      ],
      "stateMutability": "view"
    },
    {
      "type": "function",
      "name": "renounceOwnership",
      "inputs": [],
      "outputs": [],
      "stateMutability": "nonpayable"
    },
    {
      "type": "function",
      "name": "safeMint",
      "inputs": [
        {
          "name": "to",
          "type": "address",
          "internalType": "address"
        },
        {
          "name": "tokenId",
          "type": "uint256",
          "internalType": "uint256"
        },
        {
          "name": "uri",
          "type": "string",
          "internalType": "string"
        }
      ],
      "outputs": [],
      "stateMutability": "nonpayable"
    },
    {
      "type": "function",
      "name": "safeTransferFrom",
      "inputs": [
        {
          "name": "from",
          "type": "address",
          "internalType": "address"
        },
        {
          "name": "to",
          "type": "address",
          "internalType": "address"
        },
        {
          "name": "tokenId",
          "type": "uint256",
          "internalType": "uint256"
        }
      ],
      "outputs": [],
      "stateMutability": "nonpayable"
    },
    {
      "type": "function",
      "name": "safeTransferFrom",
      "inputs": [
        {
          "name": "from",
          "type": "address",
          "internalType": "address"
        },
        {
          "name": "to",
          "type": "address",
          "internalType": "address"
        },
        {
          "name": "tokenId",
          "type": "uint256",
          "internalType": "uint256"
        },
        {
          "name": "data",
          "type": "bytes",
          "internalType": "bytes"
        }
      ],
      "outputs": [],
      "stateMutability": "nonpayable"
    },
    {
      "type": "function",
      "name": "setApprovalForAll",
      "inputs": [
        {
          "name": "operator",
          "type": "address",
          "internalType": "address"
        },
        {
          "name": "approved",
          "type": "bool",
          "internalType": "bool"
        }
      ],
      "outputs": [],
      "stateMutability": "nonpayable"
    },
    {
      "type": "function",
      "name": "supportsInterface",
      "inputs": [
        {
          "name": "interfaceId",
          "type": "bytes4",
          "internalType": "bytes4"
        }
      ],
      "outputs": [
        {
          "name": "",
          "type": "bool",
          "internalType": "bool"
        }
      ],
      "stateMutability": "view"
    },
    {
      "type": "function",
      "name": "symbol",
      "inputs": [],
      "outputs": [
        {
          "name": "",
          "type": "string",
          "internalType": "string"
        }
      ],
      "stateMutability": "view"
    },
    {
      "type": "function",
      "name": "tokenURI",
      "inputs": [
        {
          "name": "tokenId",
          "type": "uint256",
          "internalType": "uint256"
        }
      ],
      "outputs": [
        {
          "name": "",
          "type": "string",
          "internalType": "string"
        }
      ],
      "stateMutability": "view"
    },
    {
      "type": "function",
      "name": "transferFrom",
      "inputs": [
        {
          "name": "from",
          "type": "address",
          "internalType": "address"
        },
        {
          "name": "to",
          "type": "address",
          "internalType": "address"
        },
        {
          "name": "tokenId",
          "type": "uint256",
          "internalType": "uint256"
        }
      ],
      "outputs": [],
      "stateMutability": "nonpayable"
    },
    {
      "type": "function",
      "name": "transferOwnership",
      "inputs": [
        {
          "name": "newOwner",
          "type": "address",
          "internalType": "address"
        }
      ],
      "outputs": [],
      "stateMutability": "nonpayable"
    },
    {
      "type": "event",
      "name": "Approval",
      "inputs": [
        {
          "name": "owner",
          "type": "address",
          "indexed": true,
          "internalType": "address"
        },
        {
          "name": "approved",
          "type": "address",
          "indexed": true,
          "internalType": "address"
        },
        {
          "name": "tokenId",
          "type": "uint256",
          "indexed": true,
          "internalType": "uint256"
        }
      ],
      "anonymous": false
    },
    {
      "type": "event",
      "name": "ApprovalForAll",
      "inputs": [
        {
          "name": "owner",
          "type": "address",
          "indexed": true,
          "internalType": "address"
        },
        {
          "name": "operator",
          "type": "address",
          "indexed": true,
          "internalType": "address"
        },
        {
          "name": "approved",
          "type": "bool",
          "indexed": false,
          "internalType": "bool"
        }
      ],
      "anonymous": false
    },
    {
      "type": "event",
      "name": "BatchMetadataUpdate",
      "inputs": [
        {
          "name": "_fromTokenId",
          "type": "uint256",
          "indexed": false,
          "internalType": "uint256"
        },
        {
          "name": "_toTokenId",
          "type": "uint256",
          "indexed": false,
          "internalType": "uint256"
        }
      ],
      "anonymous": false
    },
    {
      "type": "event",
      "name": "MetadataUpdate",
      "inputs": [
        {
          "name": "_tokenId",
          "type": "uint256",
          "indexed": false,
          "internalType": "uint256"
        }
      ],
      "anonymous": false
    },
    {
      "type": "event",
      "name": "OwnershipTransferred",
      "inputs": [
        {
          "name": "previousOwner",
          "type": "address",
          "indexed": true,
          "internalType": "address"
        },
        {
          "name": "newOwner",
          "type": "address",
          "indexed": true,
          "internalType": "address"
        }
      ],
      "anonymous": false
    },
    {
      "type": "event",
      "name": "Transfer",
      "inputs": [
        {
          "name": "from",
          "type": "address",
          "indexed": true,
          "internalType": "address"
        },
        {
          "name": "to",
          "type": "address",
          "indexed": true,
          "internalType": "address"
        },
        {
          "name": "tokenId",
          "type": "uint256",
          "indexed": true,
          "internalType": "uint256"
        }
      ],
      "anonymous": false
    },
    {
      "type": "error",
      "name": "ERC721IncorrectOwner",
      "inputs": [
        {
          "name": "sender",
          "type": "address",
          "internalType": "address"
        },
        {
          "name": "tokenId",
          "type": "uint256",
          "internalType": "uint256"
        },
        {
          "name": "owner",
          "type": "address",
          "internalType": "address"
        }
      ]
    },
    {
      "type": "error",
      "name": "ERC721InsufficientApproval",
      "inputs": [
        {
          "name": "operator",
          "type": "address",
          "internalType": "address"
        },
        {
          "name": "tokenId",
          "type": "uint256",
          "internalType": "uint256"
        }
      ]
    },
    {
      "type": "error",
      "name": "ERC721InvalidApprover",
      "inputs": [
        {
          "name": "approver",
          "type": "address",
          "internalType": "address"
        }
      ]
    },
    {
      "type": "error",
      "name": "ERC721InvalidOperator",
      "inputs": [
        {
          "name": "operator",
          "type": "address",
          "internalType": "address"
        }
      ]
    },
    {
      "type": "error",
      "name": "ERC721InvalidOwner",
      "inputs": [
        {
          "name": "owner",
          "type": "address",
          "internalType": "address"
        }
      ]
    },
    {
      "type": "error",
      "name": "ERC721InvalidReceiver",
      "inputs": [
        {
          "name": "receiver",
          "type": "address",
          "internalType": "address"
        }
      ]
    },
    {
      "type": "error",
      "name": "ERC721InvalidSender",
      "inputs": [
        {
          "name": "sender",
          "type": "address",
          "internalType": "address"
        }
      ]
    },
    {
      "type": "error",
      "name": "ERC721NonexistentToken",
      "inputs": [
        {
          "name": "tokenId",
          "type": "uint256",
          "internalType": "uint256"
        }
      ]
    },
    {
      "type": "error",
      "name": "OwnableInvalidOwner",
      "inputs": [
        {
          "name": "owner",
          "type": "address",
          "internalType": "address"
        }
      ]
    },
    {
      "type": "error",
      "name": "OwnableUnauthorizedAccount",
      "inputs": [
        {
          "name": "account",
          "type": "address",
          "internalType": "address"
        }
      ]
    }
  ],
  "bytecode": {
    "object": "0x60806040526161a86009553480156200001757600080fd5b5060405162001963380380620019638339810160408190526200003a9162000122565b604080518082018252600980825268165d59d853d1d3919560ba1b6020808401829052845180860190955291845290830152829160006200007c8382620001fb565b5060016200008b8282620001fb565b5050506001600160a01b038116620000bd57604051631e4fbdf760e01b81526000600482015260240160405180910390fd5b620000c881620000d0565b5050620002c7565b600780546001600160a01b038381166001600160a01b0319831681179093556040519116919082907f8be0079c531659141344cd1fd0a4f28419497f9722a3daafe3b4186f6b6457e090600090a35050565b6000602082840312156200013557600080fd5b81516001600160a01b03811681146200014d57600080fd5b9392505050565b634e487b7160e01b600052604160045260246000fd5b600181811c908216806200017f57607f821691505b602082108103620001a057634e487b7160e01b600052602260045260246000fd5b50919050565b601f821115620001f6576000816000526020600020601f850160051c81016020861015620001d15750805b601f850160051c820191505b81811015620001f257828155600101620001dd565b5050505b505050565b81516001600160401b0381111562000217576200021762000154565b6200022f816200022884546200016a565b84620001a6565b602080601f8311600181146200026757600084156200024e5750858301515b600019600386901b1c1916600185901b178555620001f2565b600085815260208120601f198616915b82811015620002985788860151825594840194600190910190840162000277565b5085821015620002b75787850151600019600388901b60f8161c191681555b5050505050600190811b01905550565b61168c80620002d76000396000f3fe608060405234801561001057600080fd5b506004361061014d5760003560e01c806370a08231116100c3578063b88d4fde1161007c578063b88d4fde146102b4578063c87b56dd146102c7578063cd279c7c146102da578063d5abeb01146102ed578063e985e9c5146102f6578063f2fde38b1461030957600080fd5b806370a082311461025a578063715018a61461026d57806371e578dc146102755780638da5cb5b1461028857806395d89b4114610299578063a22cb465146102a157600080fd5b806323b872dd1161011557806323b872dd146101fd57806342842e0e1461021057806342966c68146102235780634fa153b31461023657806361bc221a1461023e5780636352211e1461024757600080fd5b806301ffc9a71461015257806306fdde031461017a578063081812fc1461018f578063095ea7b3146101ba5780631e7269c5146101cf575b600080fd5b6101656101603660046110c0565b61031c565b60405190151581526020015b60405180910390f35b61018261032d565b604051610171919061112d565b6101a261019d366004611140565b6103bf565b6040516001600160a01b039091168152602001610171565b6101cd6101c8366004611175565b6103e8565b005b6101ef6101dd36600461119f565b600a6020526000908152604090205481565b604051908152602001610171565b6101cd61020b3660046111ba565b6103f7565b6101cd61021e3660046111ba565b610487565b6101cd610231366004611140565b6104a7565b6101826104b3565b6101ef60085481565b6101a2610255366004611140565b6104cf565b6101ef61026836600461119f565b6104da565b6101cd610522565b6101cd61028336600461119f565b610536565b6007546001600160a01b03166101a2565b61018261064a565b6101cd6102af3660046111f6565b610659565b6101cd6102c23660046112be565b610664565b6101826102d5366004611140565b61067b565b6101cd6102e836600461133a565b610686565b6101ef60095481565b6101656103043660046113a5565b6106a2565b6101cd61031736600461119f565b6106d0565b60006103278261070b565b92915050565b60606000805461033c906113d8565b80601f0160208091040260200160405190810160405280929190818152602001828054610368906113d8565b80156103b55780601f1061038a576101008083540402835291602001916103b5565b820191906000526020600020905b81548152906001019060200180831161039857829003601f168201915b5050505050905090565b60006103ca82610730565b506000828152600460205260409020546001600160a01b0316610327565b6103f3828233610769565b5050565b6001600160a01b03821661042657604051633250574960e11b8152600060048201526024015b60405180910390fd5b6000610433838333610776565b9050836001600160a01b0316816001600160a01b031614610481576040516364283d7b60e01b81526001600160a01b038086166004830152602482018490528216604482015260640161041d565b50505050565b6104a283838360405180602001604052806000815250610664565b505050565b6103f360008233610776565b6040518060a00160405280606981526020016115ee6069913981565b600061032782610730565b60006001600160a01b038216610506576040516322718ad960e21b81526000600482015260240161041d565b506001600160a01b031660009081526003602052604090205490565b61052a61086f565b610534600061089c565b565b61053e61086f565b600954600854106105875760405162461bcd60e51b81526020600482015260136024820152724d617820537570706c7920526561636865642160681b604482015260640161041d565b6001600160a01b0381166000908152600a6020526040902054156105e55760405162461bcd60e51b81526020600482015260156024820152744f6e65204d696e742050657220416464726573732160581b604482015260640161041d565b6008546105f3906001611428565b6001600160a01b0382166000908152600a6020526040812091909155600880549161061d8361143b565b9190505550610647816008546040518060a00160405280606981526020016115ee60699139610686565b50565b60606001805461033c906113d8565b6103f33383836108ee565b61066f8484846103f7565b6104818484848461098d565b606061032782610ab6565b61068e61086f565b6106988383610bc7565b6104a28282610be1565b6001600160a01b03918216600090815260056020908152604080832093909416825291909152205460ff1690565b6106d861086f565b6001600160a01b03811661070257604051631e4fbdf760e01b81526000600482015260240161041d565b6106478161089c565b60006001600160e01b03198216632483248360e11b1480610327575061032782610c31565b6000818152600260205260408120546001600160a01b03168061032757604051637e27328960e01b81526004810184905260240161041d565b6104a28383836001610c81565b6000828152600260205260408120546001600160a01b03908116908316156107a3576107a3818486610d87565b6001600160a01b038116156107e1576107c0600085600080610c81565b6001600160a01b038116600090815260036020526040902080546000190190555b6001600160a01b03851615610810576001600160a01b0385166000908152600360205260409020805460010190555b60008481526002602052604080822080546001600160a01b0319166001600160a01b0389811691821790925591518793918516917fddf252ad1be2c89b69c2b068fc378daa952ba7f163c4a11628f55a4df523b3ef91a4949350505050565b6007546001600160a01b031633146105345760405163118cdaa760e01b815233600482015260240161041d565b600780546001600160a01b038381166001600160a01b0319831681179093556040519116919082907f8be0079c531659141344cd1fd0a4f28419497f9722a3daafe3b4186f6b6457e090600090a35050565b6001600160a01b03821661092057604051630b61174360e31b81526001600160a01b038316600482015260240161041d565b6001600160a01b03838116600081815260056020908152604080832094871680845294825291829020805460ff191686151590811790915591519182527f17307eab39ab6107e8899845ad3d59bd9653f200f220920489ca2b5937696c31910160405180910390a3505050565b6001600160a01b0383163b1561048157604051630a85bd0160e11b81526001600160a01b0384169063150b7a02906109cf903390889087908790600401611454565b6020604051808303816000875af1925050508015610a0a575060408051601f3d908101601f19168201909252610a0791810190611491565b60015b610a73573d808015610a38576040519150601f19603f3d011682016040523d82523d6000602084013e610a3d565b606091505b508051600003610a6b57604051633250574960e11b81526001600160a01b038516600482015260240161041d565b805181602001fd5b6001600160e01b03198116630a85bd0160e11b14610aaf57604051633250574960e11b81526001600160a01b038516600482015260240161041d565b5050505050565b6060610ac182610730565b5060008281526006602052604081208054610adb906113d8565b80601f0160208091040260200160405190810160405280929190818152602001828054610b07906113d8565b8015610b545780601f10610b2957610100808354040283529160200191610b54565b820191906000526020600020905b815481529060010190602001808311610b3757829003601f168201915b505050505090506000610b7260408051602081019091526000815290565b90508051600003610b84575092915050565b815115610bb6578082604051602001610b9e9291906114ae565b60405160208183030381529060405292505050919050565b610bbf84610deb565b949350505050565b6103f3828260405180602001604052806000815250610e60565b6000828152600660205260409020610bf9828261152d565b506040518281527ff8e1a15aba9398e019f0b49df1a4fde98ee17ae345cb5f6b5e2c27f5033e8ce79060200160405180910390a15050565b60006001600160e01b031982166380ac58cd60e01b1480610c6257506001600160e01b03198216635b5e139f60e01b145b8061032757506301ffc9a760e01b6001600160e01b0319831614610327565b8080610c9557506001600160a01b03821615155b15610d57576000610ca584610730565b90506001600160a01b03831615801590610cd15750826001600160a01b0316816001600160a01b031614155b8015610ce45750610ce281846106a2565b155b15610d0d5760405163a9fbf51f60e01b81526001600160a01b038416600482015260240161041d565b8115610d555783856001600160a01b0316826001600160a01b03167f8c5be1e5ebec7d5bd14f71427d1e84f3dd0314c0f7b2291e5b200ac8c7c3b92560405160405180910390a45b505b5050600090815260046020526040902080546001600160a01b0319166001600160a01b0392909216919091179055565b610d92838383610e77565b6104a2576001600160a01b038316610dc057604051637e27328960e01b81526004810182905260240161041d565b60405163177e802f60e01b81526001600160a01b03831660048201526024810182905260440161041d565b6060610df682610730565b506000610e0e60408051602081019091526000815290565b90506000815111610e2e5760405180602001604052806000815250610e59565b80610e3884610eda565b604051602001610e499291906114ae565b6040516020818303038152906040525b9392505050565b610e6a8383610f6d565b6104a2600084848461098d565b60006001600160a01b03831615801590610bbf5750826001600160a01b0316846001600160a01b03161480610eb15750610eb184846106a2565b80610bbf5750506000908152600460205260409020546001600160a01b03908116911614919050565b60606000610ee783610fd2565b600101905060008167ffffffffffffffff811115610f0757610f07611232565b6040519080825280601f01601f191660200182016040528015610f31576020820181803683370190505b5090508181016020015b600019016f181899199a1a9b1b9c1cb0b131b232b360811b600a86061a8153600a8504945084610f3b57509392505050565b6001600160a01b038216610f9757604051633250574960e11b81526000600482015260240161041d565b6000610fa583836000610776565b90506001600160a01b038116156104a2576040516339e3563760e11b81526000600482015260240161041d565b60008072184f03e93ff9f4daa797ed6e38ed64bf6a1f0160401b83106110115772184f03e93ff9f4daa797ed6e38ed64bf6a1f0160401b830492506040015b6d04ee2d6d415b85acef8100000000831061103d576d04ee2d6d415b85acef8100000000830492506020015b662386f26fc10000831061105b57662386f26fc10000830492506010015b6305f5e1008310611073576305f5e100830492506008015b612710831061108757612710830492506004015b60648310611099576064830492506002015b600a83106103275760010192915050565b6001600160e01b03198116811461064757600080fd5b6000602082840312156110d257600080fd5b8135610e59816110aa565b60005b838110156110f85781810151838201526020016110e0565b50506000910152565b600081518084526111198160208601602086016110dd565b601f01601f19169290920160200192915050565b602081526000610e596020830184611101565b60006020828403121561115257600080fd5b5035919050565b80356001600160a01b038116811461117057600080fd5b919050565b6000806040838503121561118857600080fd5b61119183611159565b946020939093013593505050565b6000602082840312156111b157600080fd5b610e5982611159565b6000806000606084860312156111cf57600080fd5b6111d884611159565b92506111e660208501611159565b9150604084013590509250925092565b6000806040838503121561120957600080fd5b61121283611159565b91506020830135801515811461122757600080fd5b809150509250929050565b634e487b7160e01b600052604160045260246000fd5b600067ffffffffffffffff8084111561126357611263611232565b604051601f8501601f19908116603f0116810190828211818310171561128b5761128b611232565b816040528093508581528686860111156112a457600080fd5b858560208301376000602087830101525050509392505050565b600080600080608085870312156112d457600080fd5b6112dd85611159565b93506112eb60208601611159565b925060408501359150606085013567ffffffffffffffff81111561130e57600080fd5b8501601f8101871361131f57600080fd5b61132e87823560208401611248565b91505092959194509250565b60008060006060848603121561134f57600080fd5b61135884611159565b925060208401359150604084013567ffffffffffffffff81111561137b57600080fd5b8401601f8101861361138c57600080fd5b61139b86823560208401611248565b9150509250925092565b600080604083850312156113b857600080fd5b6113c183611159565b91506113cf60208401611159565b90509250929050565b600181811c908216806113ec57607f821691505b60208210810361140c57634e487b7160e01b600052602260045260246000fd5b50919050565b634e487b7160e01b600052601160045260246000fd5b8082018082111561032757610327611412565b60006001820161144d5761144d611412565b5060010190565b6001600160a01b038581168252841660208201526040810183905260806060820181905260009061148790830184611101565b9695505050505050565b6000602082840312156114a357600080fd5b8151610e59816110aa565b600083516114c08184602088016110dd565b8351908301906114d48183602088016110dd565b01949350505050565b601f8211156104a2576000816000526020600020601f850160051c810160208610156115065750805b601f850160051c820191505b8181101561152557828155600101611512565b505050505050565b815167ffffffffffffffff81111561154757611547611232565b61155b8161155584546113d8565b846114dd565b602080601f83116001811461159057600084156115785750858301515b600019600386901b1c1916600185901b178555611525565b600085815260208120601f198616915b828110156115bf578886015182559484019460019091019084016115a0565b50858210156115dd5787850151600019600388901b60f8161c191681555b5050505050600190811b0190555056fe68747470733a2f2f6261666b7265696279706a747a667a6e763678733670666e36676e6c33363636676966756d716263696b7461666a7271637866346d3377707835752e697066732e7733732e6c696e6b2f3f66696c656e616d653d6d657461646174612e6a736f6ea2646970667358221220ff69988e2a58662d12f0a5cd5f917bc05236ddc66dea5c6772316e83d2fb50f764736f6c63430008180033",
    "linkReferences": {}
  },
  "methodIdentifiers": {
    "approve(address,uint256)": "095ea7b3",
    "balanceOf(address)": "70a08231",
    "burn(uint256)": "42966c68",
    "counter()": "61bc221a",
    "getApproved(uint256)": "081812fc",
    "isApprovedForAll(address,address)": "e985e9c5",
    "maxSupply()": "d5abeb01",
    "mintFor(address)": "71e578dc",
    "minted(address)": "1e7269c5",
    "name()": "06fdde03",
    "nftURI()": "4fa153b3",
    "owner()": "8da5cb5b",
    "ownerOf(uint256)": "6352211e",
    "renounceOwnership()": "715018a6",
    "safeMint(address,uint256,string)": "cd279c7c",
    "safeTransferFrom(address,address,uint256)": "42842e0e",
    "safeTransferFrom(address,address,uint256,bytes)": "b88d4fde",
    "setApprovalForAll(address,bool)": "a22cb465",
    "supportsInterface(bytes4)": "01ffc9a7",
    "symbol()": "95d89b41",
    "tokenURI(uint256)": "c87b56dd",
    "transferFrom(address,address,uint256)": "23b872dd",
    "transferOwnership(address)": "f2fde38b"
  },
  "id": 17
}